{
  "_format": "hh-sol-artifact-1",
  "contractName": "EdNFTs",
  "sourceName": "contracts/EdNFTs.sol",
  "abi": [
    {
      "inputs": [],
      "stateMutability": "payable",
      "type": "constructor"
    },
    {
      "anonymous": false,
      "inputs": [
        {
          "indexed": true,
          "internalType": "address",
          "name": "owner",
          "type": "address"
        },
        {
          "indexed": true,
          "internalType": "address",
          "name": "approved",
          "type": "address"
        },
        {
          "indexed": true,
          "internalType": "uint256",
          "name": "tokenId",
          "type": "uint256"
        }
      ],
      "name": "Approval",
      "type": "event"
    },
    {
      "anonymous": false,
      "inputs": [
        {
          "indexed": true,
          "internalType": "address",
          "name": "owner",
          "type": "address"
        },
        {
          "indexed": true,
          "internalType": "address",
          "name": "operator",
          "type": "address"
        },
        {
          "indexed": false,
          "internalType": "bool",
          "name": "approved",
          "type": "bool"
        }
      ],
      "name": "ApprovalForAll",
      "type": "event"
    },
    {
      "anonymous": false,
      "inputs": [
        {
          "indexed": true,
          "internalType": "address",
          "name": "previousOwner",
          "type": "address"
        },
        {
          "indexed": true,
          "internalType": "address",
          "name": "newOwner",
          "type": "address"
        }
      ],
      "name": "OwnershipTransferred",
      "type": "event"
    },
    {
      "anonymous": false,
      "inputs": [
        {
          "indexed": true,
          "internalType": "address",
          "name": "from",
          "type": "address"
        },
        {
          "indexed": true,
          "internalType": "address",
          "name": "to",
          "type": "address"
        },
        {
          "indexed": true,
          "internalType": "uint256",
          "name": "tokenId",
          "type": "uint256"
        }
      ],
      "name": "Transfer",
      "type": "event"
    },
    {
      "inputs": [
        {
          "internalType": "address",
          "name": "to",
          "type": "address"
        },
        {
          "internalType": "uint256",
          "name": "tokenId",
          "type": "uint256"
        }
      ],
      "name": "approve",
      "outputs": [],
      "stateMutability": "nonpayable",
      "type": "function"
    },
    {
      "inputs": [
        {
          "internalType": "address",
          "name": "owner",
          "type": "address"
        }
      ],
      "name": "balanceOf",
      "outputs": [
        {
          "internalType": "uint256",
          "name": "",
          "type": "uint256"
        }
      ],
      "stateMutability": "view",
      "type": "function"
    },
    {
      "inputs": [
        {
          "internalType": "uint256",
          "name": "tokenId",
          "type": "uint256"
        }
      ],
      "name": "getApproved",
      "outputs": [
        {
          "internalType": "address",
          "name": "",
          "type": "address"
        }
      ],
      "stateMutability": "view",
      "type": "function"
    },
    {
      "inputs": [],
      "name": "getMaxSupply",
      "outputs": [
        {
          "internalType": "uint256",
          "name": "",
          "type": "uint256"
        }
      ],
      "stateMutability": "view",
      "type": "function"
    },
    {
      "inputs": [],
      "name": "getTotalSupply",
      "outputs": [
        {
          "internalType": "uint256",
          "name": "",
          "type": "uint256"
        }
      ],
      "stateMutability": "view",
      "type": "function"
    },
    {
      "inputs": [
        {
          "internalType": "address",
          "name": "owner",
          "type": "address"
        },
        {
          "internalType": "address",
          "name": "operator",
          "type": "address"
        }
      ],
      "name": "isApprovedForAll",
      "outputs": [
        {
          "internalType": "bool",
          "name": "",
          "type": "bool"
        }
      ],
      "stateMutability": "view",
      "type": "function"
    },
    {
      "inputs": [],
      "name": "isPublicMintEnabled",
      "outputs": [
        {
          "internalType": "bool",
          "name": "",
          "type": "bool"
        }
      ],
      "stateMutability": "view",
      "type": "function"
    },
    {
      "inputs": [],
      "name": "maxPerWallet",
      "outputs": [
        {
          "internalType": "uint256",
          "name": "",
          "type": "uint256"
        }
      ],
      "stateMutability": "view",
      "type": "function"
    },
    {
      "inputs": [],
      "name": "maxSupply",
      "outputs": [
        {
          "internalType": "uint256",
          "name": "",
          "type": "uint256"
        }
      ],
      "stateMutability": "view",
      "type": "function"
    },
    {
      "inputs": [
        {
          "internalType": "uint256",
          "name": "quantity_",
          "type": "uint256"
        }
      ],
      "name": "mint",
      "outputs": [],
      "stateMutability": "payable",
      "type": "function"
    },
    {
      "inputs": [],
      "name": "mintPrice",
      "outputs": [
        {
          "internalType": "uint256",
          "name": "",
          "type": "uint256"
        }
      ],
      "stateMutability": "view",
      "type": "function"
    },
    {
      "inputs": [],
      "name": "name",
      "outputs": [
        {
          "internalType": "string",
          "name": "",
          "type": "string"
        }
      ],
      "stateMutability": "view",
      "type": "function"
    },
    {
      "inputs": [],
      "name": "owner",
      "outputs": [
        {
          "internalType": "address",
          "name": "",
          "type": "address"
        }
      ],
      "stateMutability": "view",
      "type": "function"
    },
    {
      "inputs": [
        {
          "internalType": "uint256",
          "name": "tokenId",
          "type": "uint256"
        }
      ],
      "name": "ownerOf",
      "outputs": [
        {
          "internalType": "address",
          "name": "",
          "type": "address"
        }
      ],
      "stateMutability": "view",
      "type": "function"
    },
    {
      "inputs": [],
      "name": "renounceOwnership",
      "outputs": [],
      "stateMutability": "nonpayable",
      "type": "function"
    },
    {
      "inputs": [
        {
          "internalType": "address",
          "name": "from",
          "type": "address"
        },
        {
          "internalType": "address",
          "name": "to",
          "type": "address"
        },
        {
          "internalType": "uint256",
          "name": "tokenId",
          "type": "uint256"
        }
      ],
      "name": "safeTransferFrom",
      "outputs": [],
      "stateMutability": "nonpayable",
      "type": "function"
    },
    {
      "inputs": [
        {
          "internalType": "address",
          "name": "from",
          "type": "address"
        },
        {
          "internalType": "address",
          "name": "to",
          "type": "address"
        },
        {
          "internalType": "uint256",
          "name": "tokenId",
          "type": "uint256"
        },
        {
          "internalType": "bytes",
          "name": "data",
          "type": "bytes"
        }
      ],
      "name": "safeTransferFrom",
      "outputs": [],
      "stateMutability": "nonpayable",
      "type": "function"
    },
    {
      "inputs": [
        {
          "internalType": "address",
          "name": "operator",
          "type": "address"
        },
        {
          "internalType": "bool",
          "name": "approved",
          "type": "bool"
        }
      ],
      "name": "setApprovalForAll",
      "outputs": [],
      "stateMutability": "nonpayable",
      "type": "function"
    },
    {
      "inputs": [
        {
          "internalType": "string",
          "name": "baseTokenUri_",
          "type": "string"
        }
      ],
      "name": "setBaseTokenUri",
      "outputs": [],
      "stateMutability": "nonpayable",
      "type": "function"
    },
    {
      "inputs": [
        {
          "internalType": "bool",
          "name": "isPublicMintEnabled_",
          "type": "bool"
        }
      ],
      "name": "setIsPublicMintEnabled",
      "outputs": [],
      "stateMutability": "nonpayable",
      "type": "function"
    },
    {
      "inputs": [
        {
          "internalType": "bytes4",
          "name": "interfaceId",
          "type": "bytes4"
        }
      ],
      "name": "supportsInterface",
      "outputs": [
        {
          "internalType": "bool",
          "name": "",
          "type": "bool"
        }
      ],
      "stateMutability": "view",
      "type": "function"
    },
    {
      "inputs": [],
      "name": "symbol",
      "outputs": [
        {
          "internalType": "string",
          "name": "",
          "type": "string"
        }
      ],
      "stateMutability": "view",
      "type": "function"
    },
    {
      "inputs": [
        {
          "internalType": "uint256",
          "name": "tokenId_",
          "type": "uint256"
        }
      ],
      "name": "tokenURI",
      "outputs": [
        {
          "internalType": "string",
          "name": "",
          "type": "string"
        }
      ],
      "stateMutability": "view",
      "type": "function"
    },
    {
      "inputs": [],
      "name": "totalSupply",
      "outputs": [
        {
          "internalType": "uint256",
          "name": "",
          "type": "uint256"
        }
      ],
      "stateMutability": "view",
      "type": "function"
    },
    {
      "inputs": [
        {
          "internalType": "address",
          "name": "from",
          "type": "address"
        },
        {
          "internalType": "address",
          "name": "to",
          "type": "address"
        },
        {
          "internalType": "uint256",
          "name": "tokenId",
          "type": "uint256"
        }
      ],
      "name": "transferFrom",
      "outputs": [],
      "stateMutability": "nonpayable",
      "type": "function"
    },
    {
      "inputs": [
        {
          "internalType": "address",
          "name": "newOwner",
          "type": "address"
        }
      ],
      "name": "transferOwnership",
      "outputs": [],
      "stateMutability": "nonpayable",
      "type": "function"
    },
    {
      "inputs": [
        {
          "internalType": "address",
          "name": "",
          "type": "address"
        }
      ],
      "name": "walletMints",
      "outputs": [
        {
          "internalType": "uint256",
          "name": "",
          "type": "uint256"
        }
      ],
      "stateMutability": "view",
      "type": "function"
    },
    {
      "inputs": [],
      "name": "withdraw",
      "outputs": [],
      "stateMutability": "nonpayable",
      "type": "function"
    },
    {
      "inputs": [],
      "name": "withdrawWallet",
      "outputs": [
        {
          "internalType": "address payable",
          "name": "",
          "type": "address"
        }
      ],
      "stateMutability": "view",
      "type": "function"
    }
  ],
  "bytecode": "0x60806040526040518060400160405280600581526020017f45644e46540000000000000000000000000000000000000000000000000000008152506040518060400160405280600281526020017f454e00000000000000000000000000000000000000000000000000000000000081525081600090816200008191906200042a565b5080600190816200009391906200042a565b505050620000b6620000aa620000e260201b60201c565b620000ea60201b60201c565b662386f26fc10000600781905550600060088190555060286009819055506014600a8190555062000511565b600033905090565b6000600660009054906101000a900473ffffffffffffffffffffffffffffffffffffffff16905081600660006101000a81548173ffffffffffffffffffffffffffffffffffffffff021916908373ffffffffffffffffffffffffffffffffffffffff1602179055508173ffffffffffffffffffffffffffffffffffffffff168173ffffffffffffffffffffffffffffffffffffffff167f8be0079c531659141344cd1fd0a4f28419497f9722a3daafe3b4186f6b6457e060405160405180910390a35050565b600081519050919050565b7f4e487b7100000000000000000000000000000000000000000000000000000000600052604160045260246000fd5b7f4e487b7100000000000000000000000000000000000000000000000000000000600052602260045260246000fd5b600060028204905060018216806200023257607f821691505b602082108103620002485762000247620001ea565b5b50919050565b60008190508160005260206000209050919050565b60006020601f8301049050919050565b600082821b905092915050565b600060088302620002b27fffffffffffffffffffffffffffffffffffffffffffffffffffffffffffffffff8262000273565b620002be868362000273565b95508019841693508086168417925050509392505050565b6000819050919050565b6000819050919050565b60006200030b62000305620002ff84620002d6565b620002e0565b620002d6565b9050919050565b6000819050919050565b6200032783620002ea565b6200033f620003368262000312565b84845462000280565b825550505050565b600090565b6200035662000347565b620003638184846200031c565b505050565b5b818110156200038b576200037f6000826200034c565b60018101905062000369565b5050565b601f821115620003da57620003a4816200024e565b620003af8462000263565b81016020851015620003bf578190505b620003d7620003ce8562000263565b83018262000368565b50505b505050565b600082821c905092915050565b6000620003ff60001984600802620003df565b1980831691505092915050565b60006200041a8383620003ec565b9150826002028217905092915050565b6200043582620001b0565b67ffffffffffffffff811115620004515762000450620001bb565b5b6200045d825462000219565b6200046a8282856200038f565b600060209050601f831160018114620004a257600084156200048d578287015190505b6200049985826200040c565b86555062000509565b601f198416620004b2866200024e565b60005b82811015620004dc57848901518255600182019150602085019450602081019050620004b5565b86831015620004fc5784890151620004f8601f891682620003ec565b8355505b6001600288020188555050505b505050505050565b61375180620005216000396000f3fe6080604052600436106101c25760003560e01c806370a08231116100f7578063a22cb46511610095578063d5abeb0111610064578063d5abeb011461060f578063e985e9c51461063a578063f0293fd314610677578063f2fde38b146106b4576101c2565b8063a22cb46514610555578063b88d4fde1461057e578063c4e41b22146105a7578063c87b56dd146105d2576101c2565b80638da5cb5b116100d15780638da5cb5b146104ba57806395652cfa146104e557806395d89b411461050e578063a0712d6814610539576101c2565b806370a082311461043b578063715018a61461047857806385d178f41461048f576101c2565b806323b872dd11610164578063453c23101161013e578063453c23101461037d5780634c0f38c2146103a85780636352211e146103d35780636817c76c14610410576101c2565b806323b872dd146103145780633ccfd60b1461033d57806342842e0e14610354576101c2565b8063081812fc116101a0578063081812fc1461025a578063095ea7b31461029757806318160ddd146102c05780632373ac22146102eb576101c2565b80630116bc2d146101c757806301ffc9a7146101f257806306fdde031461022f575b600080fd5b3480156101d357600080fd5b506101dc6106dd565b6040516101e991906120cc565b60405180910390f35b3480156101fe57600080fd5b5061021960048036038101906102149190612153565b6106f0565b60405161022691906120cc565b60405180910390f35b34801561023b57600080fd5b506102446107d2565b6040516102519190612210565b60405180910390f35b34801561026657600080fd5b50610281600480360381019061027c9190612268565b610864565b60405161028e91906122d6565b60405180910390f35b3480156102a357600080fd5b506102be60048036038101906102b9919061231d565b6108aa565b005b3480156102cc57600080fd5b506102d56109c1565b6040516102e2919061236c565b60405180910390f35b3480156102f757600080fd5b50610312600480360381019061030d91906123b3565b6109c7565b005b34801561032057600080fd5b5061033b600480360381019061033691906123e0565b6109ec565b005b34801561034957600080fd5b50610352610a4c565b005b34801561036057600080fd5b5061037b600480360381019061037691906123e0565b610b25565b005b34801561038957600080fd5b50610392610b45565b60405161039f919061236c565b60405180910390f35b3480156103b457600080fd5b506103bd610b4b565b6040516103ca919061236c565b60405180910390f35b3480156103df57600080fd5b506103fa60048036038101906103f59190612268565b610b55565b60405161040791906122d6565b60405180910390f35b34801561041c57600080fd5b50610425610bdb565b604051610432919061236c565b60405180910390f35b34801561044757600080fd5b50610462600480360381019061045d9190612433565b610be1565b60405161046f919061236c565b60405180910390f35b34801561048457600080fd5b5061048d610c98565b005b34801561049b57600080fd5b506104a4610cac565b6040516104b19190612481565b60405180910390f35b3480156104c657600080fd5b506104cf610cd2565b6040516104dc91906122d6565b60405180910390f35b3480156104f157600080fd5b5061050c60048036038101906105079190612501565b610cfc565b005b34801561051a57600080fd5b50610523610d1a565b6040516105309190612210565b60405180910390f35b610553600480360381019061054e9190612268565b610dac565b005b34801561056157600080fd5b5061057c6004803603810190610577919061254e565b610f83565b005b34801561058a57600080fd5b506105a560048036038101906105a091906126be565b610f99565b005b3480156105b357600080fd5b506105bc610ffb565b6040516105c9919061236c565b60405180910390f35b3480156105de57600080fd5b506105f960048036038101906105f49190612268565b611005565b6040516106069190612210565b60405180910390f35b34801561061b57600080fd5b50610624611081565b604051610631919061236c565b60405180910390f35b34801561064657600080fd5b50610661600480360381019061065c9190612741565b611087565b60405161066e91906120cc565b60405180910390f35b34801561068357600080fd5b5061069e60048036038101906106999190612433565b61111b565b6040516106ab919061236c565b60405180910390f35b3480156106c057600080fd5b506106db60048036038101906106d69190612433565b611133565b005b600b60009054906101000a900460ff1681565b60007f80ac58cd000000000000000000000000000000000000000000000000000000007bffffffffffffffffffffffffffffffffffffffffffffffffffffffff1916827bffffffffffffffffffffffffffffffffffffffffffffffffffffffff191614806107bb57507f5b5e139f000000000000000000000000000000000000000000000000000000007bffffffffffffffffffffffffffffffffffffffffffffffffffffffff1916827bffffffffffffffffffffffffffffffffffffffffffffffffffffffff1916145b806107cb57506107ca826111b6565b5b9050919050565b6060600080546107e1906127b0565b80601f016020809104026020016040519081016040528092919081815260200182805461080d906127b0565b801561085a5780601f1061082f5761010080835404028352916020019161085a565b820191906000526020600020905b81548152906001019060200180831161083d57829003601f168201915b5050505050905090565b600061086f82611220565b6004600083815260200190815260200160002060009054906101000a900473ffffffffffffffffffffffffffffffffffffffff169050919050565b60006108b582610b55565b90508073ffffffffffffffffffffffffffffffffffffffff168373ffffffffffffffffffffffffffffffffffffffff1603610925576040517f08c379a000000000000000000000000000000000000000000000000000000000815260040161091c90612853565b60405180910390fd5b8073ffffffffffffffffffffffffffffffffffffffff1661094461126b565b73ffffffffffffffffffffffffffffffffffffffff16148061097357506109728161096d61126b565b611087565b5b6109b2576040517f08c379a00000000000000000000000000000000000000000000000000000000081526004016109a9906128e5565b60405180910390fd5b6109bc8383611273565b505050565b60085481565b6109cf61132c565b80600b60006101000a81548160ff02191690831515021790555050565b6109fd6109f761126b565b826113aa565b610a3c576040517f08c379a0000000000000000000000000000000000000000000000000000000008152600401610a3390612977565b60405180910390fd5b610a4783838361143f565b505050565b610a5461132c565b6000600d60009054906101000a900473ffffffffffffffffffffffffffffffffffffffff1673ffffffffffffffffffffffffffffffffffffffff1647604051610a9c906129c8565b60006040518083038185875af1925050503d8060008114610ad9576040519150601f19603f3d011682016040523d82523d6000602084013e610ade565b606091505b5050905080610b22576040517f08c379a0000000000000000000000000000000000000000000000000000000008152600401610b1990612a29565b60405180910390fd5b50565b610b4083838360405180602001604052806000815250610f99565b505050565b600a5481565b6000600954905090565b600080610b6183611738565b9050600073ffffffffffffffffffffffffffffffffffffffff168173ffffffffffffffffffffffffffffffffffffffff1603610bd2576040517f08c379a0000000000000000000000000000000000000000000000000000000008152600401610bc990612a95565b60405180910390fd5b80915050919050565b60075481565b60008073ffffffffffffffffffffffffffffffffffffffff168273ffffffffffffffffffffffffffffffffffffffff1603610c51576040517f08c379a0000000000000000000000000000000000000000000000000000000008152600401610c4890612b27565b60405180910390fd5b600360008373ffffffffffffffffffffffffffffffffffffffff1673ffffffffffffffffffffffffffffffffffffffff168152602001908152602001600020549050919050565b610ca061132c565b610caa6000611775565b565b600d60009054906101000a900473ffffffffffffffffffffffffffffffffffffffff1681565b6000600660009054906101000a900473ffffffffffffffffffffffffffffffffffffffff16905090565b610d0461132c565b8181600c9182610d15929190612cfe565b505050565b606060018054610d29906127b0565b80601f0160208091040260200160405190810160405280929190818152602001828054610d55906127b0565b8015610da25780601f10610d7757610100808354040283529160200191610da2565b820191906000526020600020905b815481529060010190602001808311610d8557829003601f168201915b5050505050905090565b600b60009054906101000a900460ff16610dfb576040517f08c379a0000000000000000000000000000000000000000000000000000000008152600401610df290612e1a565b60405180910390fd5b60075481610e099190612e69565b3414610e4a576040517f08c379a0000000000000000000000000000000000000000000000000000000008152600401610e4190612ef7565b60405180910390fd5b60095481600854610e5b9190612f17565b1115610e9c576040517f08c379a0000000000000000000000000000000000000000000000000000000008152600401610e9390612f97565b60405180910390fd5b600a5481600e60003373ffffffffffffffffffffffffffffffffffffffff1673ffffffffffffffffffffffffffffffffffffffff16815260200190815260200160002054610eea9190612f17565b1115610f2b576040517f08c379a0000000000000000000000000000000000000000000000000000000008152600401610f2290613003565b60405180910390fd5b60005b81811015610f7f5760006001600854610f479190612f17565b905060086000815480929190610f5c90613023565b9190505550610f6b338261183b565b508080610f7790613023565b915050610f2e565b5050565b610f95610f8e61126b565b8383611859565b5050565b610faa610fa461126b565b836113aa565b610fe9576040517f08c379a0000000000000000000000000000000000000000000000000000000008152600401610fe090612977565b60405180910390fd5b610ff5848484846119c5565b50505050565b6000600854905090565b606061101082611a21565b61104f576040517f08c379a0000000000000000000000000000000000000000000000000000000008152600401611046906130b7565b60405180910390fd5b600c61105a83611a62565b60405160200161106b9291906131e2565b6040516020818303038152906040529050919050565b60095481565b6000600560008473ffffffffffffffffffffffffffffffffffffffff1673ffffffffffffffffffffffffffffffffffffffff16815260200190815260200160002060008373ffffffffffffffffffffffffffffffffffffffff1673ffffffffffffffffffffffffffffffffffffffff16815260200190815260200160002060009054906101000a900460ff16905092915050565b600e6020528060005260406000206000915090505481565b61113b61132c565b600073ffffffffffffffffffffffffffffffffffffffff168173ffffffffffffffffffffffffffffffffffffffff16036111aa576040517f08c379a00000000000000000000000000000000000000000000000000000000081526004016111a190613283565b60405180910390fd5b6111b381611775565b50565b60007f01ffc9a7000000000000000000000000000000000000000000000000000000007bffffffffffffffffffffffffffffffffffffffffffffffffffffffff1916827bffffffffffffffffffffffffffffffffffffffffffffffffffffffff1916149050919050565b61122981611a21565b611268576040517f08c379a000000000000000000000000000000000000000000000000000000000815260040161125f90612a95565b60405180910390fd5b50565b600033905090565b816004600083815260200190815260200160002060006101000a81548173ffffffffffffffffffffffffffffffffffffffff021916908373ffffffffffffffffffffffffffffffffffffffff160217905550808273ffffffffffffffffffffffffffffffffffffffff166112e683610b55565b73ffffffffffffffffffffffffffffffffffffffff167f8c5be1e5ebec7d5bd14f71427d1e84f3dd0314c0f7b2291e5b200ac8c7c3b92560405160405180910390a45050565b61133461126b565b73ffffffffffffffffffffffffffffffffffffffff16611352610cd2565b73ffffffffffffffffffffffffffffffffffffffff16146113a8576040517f08c379a000000000000000000000000000000000000000000000000000000000815260040161139f906132ef565b60405180910390fd5b565b6000806113b683610b55565b90508073ffffffffffffffffffffffffffffffffffffffff168473ffffffffffffffffffffffffffffffffffffffff1614806113f857506113f78185611087565b5b8061143657508373ffffffffffffffffffffffffffffffffffffffff1661141e84610864565b73ffffffffffffffffffffffffffffffffffffffff16145b91505092915050565b8273ffffffffffffffffffffffffffffffffffffffff1661145f82610b55565b73ffffffffffffffffffffffffffffffffffffffff16146114b5576040517f08c379a00000000000000000000000000000000000000000000000000000000081526004016114ac90613381565b60405180910390fd5b600073ffffffffffffffffffffffffffffffffffffffff168273ffffffffffffffffffffffffffffffffffffffff1603611524576040517f08c379a000000000000000000000000000000000000000000000000000000000815260040161151b90613413565b60405180910390fd5b6115318383836001611b30565b8273ffffffffffffffffffffffffffffffffffffffff1661155182610b55565b73ffffffffffffffffffffffffffffffffffffffff16146115a7576040517f08c379a000000000000000000000000000000000000000000000000000000000815260040161159e90613381565b60405180910390fd5b6004600082815260200190815260200160002060006101000a81549073ffffffffffffffffffffffffffffffffffffffff02191690556001600360008573ffffffffffffffffffffffffffffffffffffffff1673ffffffffffffffffffffffffffffffffffffffff168152602001908152602001600020600082825403925050819055506001600360008473ffffffffffffffffffffffffffffffffffffffff1673ffffffffffffffffffffffffffffffffffffffff16815260200190815260200160002060008282540192505081905550816002600083815260200190815260200160002060006101000a81548173ffffffffffffffffffffffffffffffffffffffff021916908373ffffffffffffffffffffffffffffffffffffffff160217905550808273ffffffffffffffffffffffffffffffffffffffff168473ffffffffffffffffffffffffffffffffffffffff167fddf252ad1be2c89b69c2b068fc378daa952ba7f163c4a11628f55a4df523b3ef60405160405180910390a46117338383836001611b36565b505050565b60006002600083815260200190815260200160002060009054906101000a900473ffffffffffffffffffffffffffffffffffffffff169050919050565b6000600660009054906101000a900473ffffffffffffffffffffffffffffffffffffffff16905081600660006101000a81548173ffffffffffffffffffffffffffffffffffffffff021916908373ffffffffffffffffffffffffffffffffffffffff1602179055508173ffffffffffffffffffffffffffffffffffffffff168173ffffffffffffffffffffffffffffffffffffffff167f8be0079c531659141344cd1fd0a4f28419497f9722a3daafe3b4186f6b6457e060405160405180910390a35050565b611855828260405180602001604052806000815250611b3c565b5050565b8173ffffffffffffffffffffffffffffffffffffffff168373ffffffffffffffffffffffffffffffffffffffff16036118c7576040517f08c379a00000000000000000000000000000000000000000000000000000000081526004016118be9061347f565b60405180910390fd5b80600560008573ffffffffffffffffffffffffffffffffffffffff1673ffffffffffffffffffffffffffffffffffffffff16815260200190815260200160002060008473ffffffffffffffffffffffffffffffffffffffff1673ffffffffffffffffffffffffffffffffffffffff16815260200190815260200160002060006101000a81548160ff0219169083151502179055508173ffffffffffffffffffffffffffffffffffffffff168373ffffffffffffffffffffffffffffffffffffffff167f17307eab39ab6107e8899845ad3d59bd9653f200f220920489ca2b5937696c31836040516119b891906120cc565b60405180910390a3505050565b6119d084848461143f565b6119dc84848484611b97565b611a1b576040517f08c379a0000000000000000000000000000000000000000000000000000000008152600401611a1290613511565b60405180910390fd5b50505050565b60008073ffffffffffffffffffffffffffffffffffffffff16611a4383611738565b73ffffffffffffffffffffffffffffffffffffffff1614159050919050565b606060006001611a7184611d1e565b01905060008167ffffffffffffffff811115611a9057611a8f612593565b5b6040519080825280601f01601f191660200182016040528015611ac25781602001600182028036833780820191505090505b509050600082602001820190505b600115611b25578080600190039150507f3031323334353637383961626364656600000000000000000000000000000000600a86061a8153600a8581611b1957611b18613531565b5b04945060008503611ad0575b819350505050919050565b50505050565b50505050565b611b468383611e71565b611b536000848484611b97565b611b92576040517f08c379a0000000000000000000000000000000000000000000000000000000008152600401611b8990613511565b60405180910390fd5b505050565b6000611bb88473ffffffffffffffffffffffffffffffffffffffff1661208e565b15611d11578373ffffffffffffffffffffffffffffffffffffffff1663150b7a02611be161126b565b8786866040518563ffffffff1660e01b8152600401611c0394939291906135b5565b6020604051808303816000875af1925050508015611c3f57506040513d601f19601f82011682018060405250810190611c3c9190613616565b60015b611cc1573d8060008114611c6f576040519150601f19603f3d011682016040523d82523d6000602084013e611c74565b606091505b506000815103611cb9576040517f08c379a0000000000000000000000000000000000000000000000000000000008152600401611cb090613511565b60405180910390fd5b805181602001fd5b63150b7a0260e01b7bffffffffffffffffffffffffffffffffffffffffffffffffffffffff1916817bffffffffffffffffffffffffffffffffffffffffffffffffffffffff191614915050611d16565b600190505b949350505050565b600080600090507a184f03e93ff9f4daa797ed6e38ed64bf6a1f0100000000000000008310611d7c577a184f03e93ff9f4daa797ed6e38ed64bf6a1f0100000000000000008381611d7257611d71613531565b5b0492506040810190505b6d04ee2d6d415b85acef81000000008310611db9576d04ee2d6d415b85acef81000000008381611daf57611dae613531565b5b0492506020810190505b662386f26fc100008310611de857662386f26fc100008381611dde57611ddd613531565b5b0492506010810190505b6305f5e1008310611e11576305f5e1008381611e0757611e06613531565b5b0492506008810190505b6127108310611e36576127108381611e2c57611e2b613531565b5b0492506004810190505b60648310611e595760648381611e4f57611e4e613531565b5b0492506002810190505b600a8310611e68576001810190505b80915050919050565b600073ffffffffffffffffffffffffffffffffffffffff168273ffffffffffffffffffffffffffffffffffffffff1603611ee0576040517f08c379a0000000000000000000000000000000000000000000000000000000008152600401611ed79061368f565b60405180910390fd5b611ee981611a21565b15611f29576040517f08c379a0000000000000000000000000000000000000000000000000000000008152600401611f20906136fb565b60405180910390fd5b611f37600083836001611b30565b611f4081611a21565b15611f80576040517f08c379a0000000000000000000000000000000000000000000000000000000008152600401611f77906136fb565b60405180910390fd5b6001600360008473ffffffffffffffffffffffffffffffffffffffff1673ffffffffffffffffffffffffffffffffffffffff16815260200190815260200160002060008282540192505081905550816002600083815260200190815260200160002060006101000a81548173ffffffffffffffffffffffffffffffffffffffff021916908373ffffffffffffffffffffffffffffffffffffffff160217905550808273ffffffffffffffffffffffffffffffffffffffff16600073ffffffffffffffffffffffffffffffffffffffff167fddf252ad1be2c89b69c2b068fc378daa952ba7f163c4a11628f55a4df523b3ef60405160405180910390a461208a600083836001611b36565b5050565b6000808273ffffffffffffffffffffffffffffffffffffffff163b119050919050565b60008115159050919050565b6120c6816120b1565b82525050565b60006020820190506120e160008301846120bd565b92915050565b6000604051905090565b600080fd5b600080fd5b60007fffffffff0000000000000000000000000000000000000000000000000000000082169050919050565b612130816120fb565b811461213b57600080fd5b50565b60008135905061214d81612127565b92915050565b600060208284031215612169576121686120f1565b5b60006121778482850161213e565b91505092915050565b600081519050919050565b600082825260208201905092915050565b60005b838110156121ba57808201518184015260208101905061219f565b60008484015250505050565b6000601f19601f8301169050919050565b60006121e282612180565b6121ec818561218b565b93506121fc81856020860161219c565b612205816121c6565b840191505092915050565b6000602082019050818103600083015261222a81846121d7565b905092915050565b6000819050919050565b61224581612232565b811461225057600080fd5b50565b6000813590506122628161223c565b92915050565b60006020828403121561227e5761227d6120f1565b5b600061228c84828501612253565b91505092915050565b600073ffffffffffffffffffffffffffffffffffffffff82169050919050565b60006122c082612295565b9050919050565b6122d0816122b5565b82525050565b60006020820190506122eb60008301846122c7565b92915050565b6122fa816122b5565b811461230557600080fd5b50565b600081359050612317816122f1565b92915050565b60008060408385031215612334576123336120f1565b5b600061234285828601612308565b925050602061235385828601612253565b9150509250929050565b61236681612232565b82525050565b6000602082019050612381600083018461235d565b92915050565b612390816120b1565b811461239b57600080fd5b50565b6000813590506123ad81612387565b92915050565b6000602082840312156123c9576123c86120f1565b5b60006123d78482850161239e565b91505092915050565b6000806000606084860312156123f9576123f86120f1565b5b600061240786828701612308565b935050602061241886828701612308565b925050604061242986828701612253565b9150509250925092565b600060208284031215612449576124486120f1565b5b600061245784828501612308565b91505092915050565b600061246b82612295565b9050919050565b61247b81612460565b82525050565b60006020820190506124966000830184612472565b92915050565b600080fd5b600080fd5b600080fd5b60008083601f8401126124c1576124c061249c565b5b8235905067ffffffffffffffff8111156124de576124dd6124a1565b5b6020830191508360018202830111156124fa576124f96124a6565b5b9250929050565b60008060208385031215612518576125176120f1565b5b600083013567ffffffffffffffff811115612536576125356120f6565b5b612542858286016124ab565b92509250509250929050565b60008060408385031215612565576125646120f1565b5b600061257385828601612308565b92505060206125848582860161239e565b9150509250929050565b600080fd5b7f4e487b7100000000000000000000000000000000000000000000000000000000600052604160045260246000fd5b6125cb826121c6565b810181811067ffffffffffffffff821117156125ea576125e9612593565b5b80604052505050565b60006125fd6120e7565b905061260982826125c2565b919050565b600067ffffffffffffffff82111561262957612628612593565b5b612632826121c6565b9050602081019050919050565b82818337600083830152505050565b600061266161265c8461260e565b6125f3565b90508281526020810184848401111561267d5761267c61258e565b5b61268884828561263f565b509392505050565b600082601f8301126126a5576126a461249c565b5b81356126b584826020860161264e565b91505092915050565b600080600080608085870312156126d8576126d76120f1565b5b60006126e687828801612308565b94505060206126f787828801612308565b935050604061270887828801612253565b925050606085013567ffffffffffffffff811115612729576127286120f6565b5b61273587828801612690565b91505092959194509250565b60008060408385031215612758576127576120f1565b5b600061276685828601612308565b925050602061277785828601612308565b9150509250929050565b7f4e487b7100000000000000000000000000000000000000000000000000000000600052602260045260246000fd5b600060028204905060018216806127c857607f821691505b6020821081036127db576127da612781565b5b50919050565b7f4552433732313a20617070726f76616c20746f2063757272656e74206f776e6560008201527f7200000000000000000000000000000000000000000000000000000000000000602082015250565b600061283d60218361218b565b9150612848826127e1565b604082019050919050565b6000602082019050818103600083015261286c81612830565b9050919050565b7f4552433732313a20617070726f76652063616c6c6572206973206e6f7420746f60008201527f6b656e206f776e6572206f7220617070726f76656420666f7220616c6c000000602082015250565b60006128cf603d8361218b565b91506128da82612873565b604082019050919050565b600060208201905081810360008301526128fe816128c2565b9050919050565b7f4552433732313a2063616c6c6572206973206e6f7420746f6b656e206f776e6560008201527f72206f7220617070726f76656400000000000000000000000000000000000000602082015250565b6000612961602d8361218b565b915061296c82612905565b604082019050919050565b6000602082019050818103600083015261299081612954565b9050919050565b600081905092915050565b50565b60006129b2600083612997565b91506129bd826129a2565b600082019050919050565b60006129d3826129a5565b9150819050919050565b7f7769746864726177206661696c65640000000000000000000000000000000000600082015250565b6000612a13600f8361218b565b9150612a1e826129dd565b602082019050919050565b60006020820190508181036000830152612a4281612a06565b9050919050565b7f4552433732313a20696e76616c696420746f6b656e2049440000000000000000600082015250565b6000612a7f60188361218b565b9150612a8a82612a49565b602082019050919050565b60006020820190508181036000830152612aae81612a72565b9050919050565b7f4552433732313a2061646472657373207a65726f206973206e6f74206120766160008201527f6c6964206f776e65720000000000000000000000000000000000000000000000602082015250565b6000612b1160298361218b565b9150612b1c82612ab5565b604082019050919050565b60006020820190508181036000830152612b4081612b04565b9050919050565b600082905092915050565b60008190508160005260206000209050919050565b60006020601f8301049050919050565b600082821b905092915050565b600060088302612bb47fffffffffffffffffffffffffffffffffffffffffffffffffffffffffffffffff82612b77565b612bbe8683612b77565b95508019841693508086168417925050509392505050565b6000819050919050565b6000612bfb612bf6612bf184612232565b612bd6565b612232565b9050919050565b6000819050919050565b612c1583612be0565b612c29612c2182612c02565b848454612b84565b825550505050565b600090565b612c3e612c31565b612c49818484612c0c565b505050565b5b81811015612c6d57612c62600082612c36565b600181019050612c4f565b5050565b601f821115612cb257612c8381612b52565b612c8c84612b67565b81016020851015612c9b578190505b612caf612ca785612b67565b830182612c4e565b50505b505050565b600082821c905092915050565b6000612cd560001984600802612cb7565b1980831691505092915050565b6000612cee8383612cc4565b9150826002028217905092915050565b612d088383612b47565b67ffffffffffffffff811115612d2157612d20612593565b5b612d2b82546127b0565b612d36828285612c71565b6000601f831160018114612d655760008415612d53578287013590505b612d5d8582612ce2565b865550612dc5565b601f198416612d7386612b52565b60005b82811015612d9b57848901358255600182019150602085019450602081019050612d76565b86831015612db85784890135612db4601f891682612cc4565b8355505b6001600288020188555050505b50505050505050565b7f6d696e74696e67206e6f7420656e61626c656400000000000000000000000000600082015250565b6000612e0460138361218b565b9150612e0f82612dce565b602082019050919050565b60006020820190508181036000830152612e3381612df7565b9050919050565b7f4e487b7100000000000000000000000000000000000000000000000000000000600052601160045260246000fd5b6000612e7482612232565b9150612e7f83612232565b9250828202612e8d81612232565b91508282048414831517612ea457612ea3612e3a565b5b5092915050565b7f77726f6e67206d696e742076616c756500000000000000000000000000000000600082015250565b6000612ee160108361218b565b9150612eec82612eab565b602082019050919050565b60006020820190508181036000830152612f1081612ed4565b9050919050565b6000612f2282612232565b9150612f2d83612232565b9250828201905080821115612f4557612f44612e3a565b5b92915050565b7f736f6c64206f7574000000000000000000000000000000000000000000000000600082015250565b6000612f8160088361218b565b9150612f8c82612f4b565b602082019050919050565b60006020820190508181036000830152612fb081612f74565b9050919050565b7f657863656564206d61782077616c6c6574000000000000000000000000000000600082015250565b6000612fed60118361218b565b9150612ff882612fb7565b602082019050919050565b6000602082019050818103600083015261301c81612fe0565b9050919050565b600061302e82612232565b91507fffffffffffffffffffffffffffffffffffffffffffffffffffffffffffffffff82036130605761305f612e3a565b5b600182019050919050565b7f546f6b656e20646f6573206e6f74206578697374210000000000000000000000600082015250565b60006130a160158361218b565b91506130ac8261306b565b602082019050919050565b600060208201905081810360008301526130d081613094565b9050919050565b600081905092915050565b600081546130ef816127b0565b6130f981866130d7565b9450600182166000811461311457600181146131295761315c565b60ff198316865281151582028601935061315c565b61313285612b52565b60005b8381101561315457815481890152600182019150602081019050613135565b838801955050505b50505092915050565b600061317082612180565b61317a81856130d7565b935061318a81856020860161219c565b80840191505092915050565b7f2e6a736f6e000000000000000000000000000000000000000000000000000000600082015250565b60006131cc6005836130d7565b91506131d782613196565b600582019050919050565b60006131ee82856130e2565b91506131fa8284613165565b9150613205826131bf565b91508190509392505050565b7f4f776e61626c653a206e6577206f776e657220697320746865207a65726f206160008201527f6464726573730000000000000000000000000000000000000000000000000000602082015250565b600061326d60268361218b565b915061327882613211565b604082019050919050565b6000602082019050818103600083015261329c81613260565b9050919050565b7f4f776e61626c653a2063616c6c6572206973206e6f7420746865206f776e6572600082015250565b60006132d960208361218b565b91506132e4826132a3565b602082019050919050565b60006020820190508181036000830152613308816132cc565b9050919050565b7f4552433732313a207472616e736665722066726f6d20696e636f72726563742060008201527f6f776e6572000000000000000000000000000000000000000000000000000000602082015250565b600061336b60258361218b565b91506133768261330f565b604082019050919050565b6000602082019050818103600083015261339a8161335e565b9050919050565b7f4552433732313a207472616e7366657220746f20746865207a65726f2061646460008201527f7265737300000000000000000000000000000000000000000000000000000000602082015250565b60006133fd60248361218b565b9150613408826133a1565b604082019050919050565b6000602082019050818103600083015261342c816133f0565b9050919050565b7f4552433732313a20617070726f766520746f2063616c6c657200000000000000600082015250565b600061346960198361218b565b915061347482613433565b602082019050919050565b600060208201905081810360008301526134988161345c565b9050919050565b7f4552433732313a207472616e7366657220746f206e6f6e20455243373231526560008201527f63656976657220696d706c656d656e7465720000000000000000000000000000602082015250565b60006134fb60328361218b565b91506135068261349f565b604082019050919050565b6000602082019050818103600083015261352a816134ee565b9050919050565b7f4e487b7100000000000000000000000000000000000000000000000000000000600052601260045260246000fd5b600081519050919050565b600082825260208201905092915050565b600061358782613560565b613591818561356b565b93506135a181856020860161219c565b6135aa816121c6565b840191505092915050565b60006080820190506135ca60008301876122c7565b6135d760208301866122c7565b6135e4604083018561235d565b81810360608301526135f6818461357c565b905095945050505050565b60008151905061361081612127565b92915050565b60006020828403121561362c5761362b6120f1565b5b600061363a84828501613601565b91505092915050565b7f4552433732313a206d696e7420746f20746865207a65726f2061646472657373600082015250565b600061367960208361218b565b915061368482613643565b602082019050919050565b600060208201905081810360008301526136a88161366c565b9050919050565b7f4552433732313a20746f6b656e20616c7265616479206d696e74656400000000600082015250565b60006136e5601c8361218b565b91506136f0826136af565b602082019050919050565b60006020820190508181036000830152613714816136d8565b905091905056fea2646970667358221220506d1d7be455e6f7dcae11322c7bc5c4665f052ba0a57473ca77b1a53e25b1fa64736f6c63430008120033",
  "linkReferences": {},
  "deployedLinkReferences": {}
}